:100000000A128A11DB2FFF1B0D2883137F18831719
:100010000008840A0319FF0A080000308A00040857
:10002000840A82070034013400340A340034643412
:100030000034E8340334103427344D3469346334E5
:1000400072346F3420344C3461346234203446349A
:1000500069346E3461346C3400345534673475342B
:100060007234203441346C34743475346E347434E6
:10007000613473340034533461346934743420345B
:100080004B34613472346134633461340034443449
:100090006934633465342034313420343D342534BC
:1000A0006434003444346934633465342034323485
:1000B00020343D3425346434003431343434303425
:1000C0003734353435343034323434340034323427
:1000D00030343034373435343534303436343434E5
:0E00E0000034503472346F346A3465340034A6
:1002CA0001340034003400345330F000F00B6B2951
:1002DA00080064008001840A040603190034040635
:1002EA006F2901300A128A11A0210A128A110330D9
:1002FA00F4009730F300F30B8029F40B8029852949
:10030A000800F4007403031D8B298C2996297308AD
:10031A00FF3E0F39803E0A128A11A0210A128A1161
:10032A009F297308FF3E0F39C03E0A128A11A02185
:10033A000A128A110800F2008312031386100610AB
:10034A0006157208F039870006110A128A11692106
:10035A000A128A1183120313061572080F39F10063
:10036A0003300310F10DFF3E031DB6290310710D72
:10037A00870006110A128A1169210A128A110800D5
:10038A00F200831203138610061406157208F03958
:10039A00870006110A128A1169210A128A11831228
:1003AA000313061572080F39F10003300310F10D1B
:1003BA00FF3E031DDB290310710D870006110A1287
:1003CA008A1169210A128A1108000A128A116921FE
:1003DA000A128A11042A7408FF00730884000A1298
:1003EA008A1103200A128A110A128A11C5210A12D5
:1003FA008A110130F3070318F40A0030F40774086D
:10040A0083120313FF00730884000A128A1103205F
:10041A000A128A11003A031D132A142AF029080025
:10042A007808790403191A2A1B2A4A2AFD01FD0AA7
:10043A00292A01300310F80DF90DFF3E031D1F2A6A
:10044A000130FC007C08FD07F91F2C2A2D2A1E2AE0
:10045A0079087B02031D332A78087A02031C362A9C
:10046A00372A3D2A7808FA027908031CFB03FB02A3
:10047A0001300310F90CF80CFF3E031D3E2A01302F
:10048A00FD02031D492A4A2A2D2A7B08F9007A0807
:10049A00F8000800831203130610061186101430A0
:1004AA00F6007930F500F50B582AF60B582A5D2A22
:1004BA0083120313061502300A128A11A0210A12A6
:1004CA008A110330F6009730F500F50B6A2AF60B0D
:1004DA006A2A6F2A28300A128A11A0210A128A115E
:1004EA0006300A128A11A0210A128A110C300A1245
:1004FA008A11A0210A128A110A128A1176210A1275
:10050A008A1180300A128A11A0210A128A1108005F
:10051A00F501F601700871040319942A952ACC2A68
:10052A00F701F70AA32A01300310F00DF10DFF3E7F
:10053A00031D992A0130F4007408F707F11FA62A4F
:10054A00A72A982A01300310F50DF60DFF3E031D68
:10055A00A82A71087302031DB42A70087202031CC8
:10056A00B72AB82ABF2A7008F2027108031CF303DB
:10057A00F302751401300310F10CF00CFF3E031D59
:10058A00C02A0130F702031DCB2ACC2AA72A7608F3
:10059A00F1007508F00008000030FC000030FB0094
:1005AA000030FA000030F900701CDC2ADD2AF42A37
:1005BA007408F907750803110318013E0319E62A9E
:1005CA00FA07760803110318013E0319ED2AFB07FF
:1005DA00770803110318013E0319F42AFC070130B6
:1005EA00F8000310F40DF50DF60DF70DF80BF62AC9
:1005FA0001300310F30CF20CF10CF00CFF3E031D5A
:10060A00FE2A7308720471047004031D0D2B0E2B4D
:10061A00D92A7C08F3007B08F2007A08F1007908ED
:10062A00F0000800831203135508F3005408F2007F
:10063A005308F1005208F0004130F700C630F600C6
:10064A004E30F5006D30F4000A128A11D1220A12D6
:10065A008A11730883120313D5007208D400710833
:10066A00D3007008D2003930D20730300318313045
:10067A00D307003003180130D407003003180130C3
:10068A00D5075208A2005308A3005408A40055082D
:10069A00A5001030A600250DA50CA40CA30CA20CD5
:1006AA00A60B502BFF302205A0007F302305A100A6
:1006BA00080083120313AC01AA1F642B652B6C2B51
:1006CA00A909AA09A90A0319AA0AAC01AC0AA81F0E
:1006DA006F2B702B752BA709A809A70A0319A80A5B
:1006EA002708280403197A2B7B2BAA2BAB01AB0A08
:1006FA00892B01300310A70DA80DFF3E031D7F2B88
:10070A000130FD007D08AB07A81F8C2B8D2B7E2B9B
:10071A0028082A02031D932B27082902031C962B5B
:10072A00972B9D2B2708A9022808031CAA03AA02B3
:10073A0001300310A80CA70CFF3E031D9E2B0130AD
:10074A00AB02031DA92BAA2B8D2B2C080319AE2B48
:10075A00AF2BB42BA909AA09A90A0319AA0A2A08BC
:10076A00A8002908A700080083120313AB00213050
:10077A00A3002308A6008A2C25302C060319C62BB1
:10078A00C72BD32B2C08A3002B0884002308831320
:10079A0080000130A3002308AB078A2CA70101308F
:1007AA00A007FF30200784000A128A110D200A12BE
:1007BA008A11AC00A300A4012408003A0319E62B0D
:1007CA008A2C2308003A03199C2C643A0319F12B4A
:1007DA000D3A0319F12B8A2C26088400831300088A
:1007EA00A900840A0008AA000230A3002308A60769
:1007FA00AA1F002C012C0A2C0330A3002308A704EB
:10080A00A909AA09A90A0319AA0AAC01AC0A2C085F
:10081A00A3002307013E84000A128A110D200A123E
:10082A008A11A4000A128A110D200A128A11A5003F
:10083A0025082A02031D232C240829020318262C22
:10084A00272C282C322C0130A3002308AC070530B2
:10085A002C06031D312C322C0C2C270803390319C2
:10086A00372C382C432C2D30A3002B088400230866
:10087A00831380000130A3002308AB072C08A300D0
:10088A002308A800812C0A30F8000030F900280853
:10089A00A3002307013E84000A128A110D200A12BE
:1008AA008A11F0000A128A110D200A128A11F10027
:1008BA002A08F3002908F2000A128A118D220A1264
:1008CA008A117108FB007008FA000A128A111522AF
:1008DA000A128A117808303E83120313A4002408EE
:1008EA00AC002C08A3002B08840023088313800083
:1008FA000130A3002308AB07FF30A3002308A80791
:10090A00280A031D892C8A2C482C0130A007FF30A5
:10091A00200784000A128A110D200A128A11A300E4
:10092A002308AC002C08031D9B2C9C2CC12B2B08E4
:10093A00840083138001080007308316031388009C
:10094A00860187010A128A114F220A128A1102307D
:10095A0083120313AD002D08F30001300A128A1125
:10096A0086210A128A110B30F3008030F4000A1231
:10097A008A11EA210A128A11063083120313AD0082
:10098A002D08F30002300A128A1186210A128A11EE
:10099A005F30F3008030F4000A128A11EA210A1249
:1009AA008A110830831203138800081DDD2CDE2CFF
:1009BA00562D0A128A1176210A128A110A128A11EE
:1009CA004F220A128A1183120313B801B9010630A1
:1009DA0083120313A7000030A8000A128A111723F2
:1009EA000A128A11831203132108AA002008A900F7
:1009FA000A128A115E230A128A1183120313270824
:100A0A00013EB00028080318013E003EB10035300F
:100A1A00AD002D08A0003108A2003008A100463020
:100A2A000A128A11B9230A128A11F301F30A013050
:100A3A000A128A1186210A128A114630F3000030FE
:100A4A00F4000A128A11EA210A128A114130831229
:100A5A000313AE00ED30AD00AD0B312DAE0B312DD1
:100A6A00362D013083120313B8070318B90A003070
:100A7A00B9073908803AFF0080307F02031D472DED
:100A8A0015303802031C4A2D4B2DEC2C1A308312D8
:100A9A000313AE00F730AD00AD0B512DAE0B512D47
:100AAA00562D83120313881C5B2D5C2DD42D0A123C
:100ABA008A1176210A128A110A128A114F220A12FF
:100ACA008A1183120313B801B90106308312031382
:100ADA00A7000030A8000A128A1117230A128A11E5
:100AEA00831203132108AA002008A9000A128A11F6
:100AFA005E230A128A11831203132708013EB200E9
:100B0A0028080318013E003EB3004030AD002D080E
:100B1A00A0003308A2003208A1003A300A128A1152
:100B2A00B9230A128A11F301F30A01300A128A114F
:100B3A0086210A128A113A30F3000030F4000A12B0
:100B4A008A11EA210A128A11413083120313AE0074
:100B5A00ED30AD00AD0BAF2DAE0BAF2DB42D013086
:100B6A0083120313B8070318B90A0030B907390802
:100B7A00803AFF0080307F02031DC52D15303802F0
:100B8A00031CC82DC92D6A2D1A3083120313AE0017
:100B9A00F730AD00AD0BCF2DAE0BCF2DD42D831278
:100BAA000313081CD92DDA2DC52E0A128A117621B3
:100BBA000A128A110A128A114F220A128A11831200
:100BCA000313B801B901063083120313A7000030DA
:100BDA00A8000A128A1117230A128A118312031310
:100BEA002108AA002008A9000A128A115E230A1203
:100BFA008A11831203132708013EB4002808031838
:100C0A00013E003EB5003530AD002D08A000350884
:100C1A00A2003408A10046300A128A11B9230A1226
:100C2A008A11053083120313AD002D08F300013039
:100C3A000A128A1186210A128A114630F3000030FC
:100C4A00F4000A128A11EA210A128A114130831227
:100C5A000313AE00ED30AD00AD0B312EAE0B312ECD
:100C6A00362E013083120313B8070318B90A00306D
:100C7A00B9073908803AFF0080307F02031D472EEA
:100C8A0015303802031C4A2E4B2EE82DF301F30AC5
:100C9A0002300A128A1186210A128A118312031358
:100CAA00B801B901063083120313A7000030A80067
:100CBA000A128A1117230A128A11831203132108AE
:100CCA00AA002008A9000A128A115E230A128A11B0
:100CDA00831203132708013EB60028080318013EB1
:100CEA00003EB7004030AD002D08A0003708A20032
:100CFA003608A1003A300A128A11B9230A128A1157
:100D0A00053083120313AD002D08F30002300A12D6
:100D1A008A1186210A128A113A30F3000030F4004F
:100D2A000A128A11EA210A128A1141308312031324
:100D3A00AE00ED30AD00AD0BA02EAE0BA02EA52E51
:100D4A00013083120313B8070318B90A0030B90730
:100D5A003908803AFF0080307F02031DB62E153015
:100D6A003802031CB92EBA2E572E1A3083120313D7
:100D7A00AE00F730AD00AD0BC02EAE0BC02EC52EA7
:100D8A001030831203138800081DCC2ECD2ED22ECC
:100D9A000A128A1176210A128A1183120313881CF5
:100DAA00D72ED82E0C2F0A128A1176210A128A11EE
:100DBA000A128A114F220A128A110230831203136D
:100DCA00AD002D08F30001300A128A1186210A1299
:100DDA008A110B30F3008030F4000A128A11EA21DA
:100DEA000A128A11063083120313AD002D08F3008C
:100DFA0002300A128A1186210A128A115F30F30020
:100E0A008030F4000A128A11EA210A128A1140304B
:100E1A00831203138800081D132F142F6D2FB80196
:100E2A00B9010A128A1176210A128A110A128A1142
:100E3A004F220A128A11831203133808AD002D08B3
:100E4A00F30001300A128A1186210A128A11293006
:100E5A00F3008030F4000A128A11EA210A128A1178
:100E6A00831203133808AD002D08F30002300A126A
:100E7A008A1186210A128A114B30F3008030F4005D
:100E8A000A128A11EA210A128A11063083120313FE
:100E9A00AF001330AE00AD30AD00AD0B522FAE0B2C
:100EAA00522FAF0B522F013083120313B8070318C6
:100EBA00B90A0030B9073908803AFF0080307F024A
:100ECA00031D692F22303802031C6C2F6D2F162F39
:100EDA0083120313081C722F732FCC2FB801B90188
:100EEA000A128A1176210A128A110A128A114F22CB
:100EFA000A128A11831203133808AD002D08F30071
:100F0A0001300A128A1186210A128A111B30F30053
:100F1A008030F4000A128A11EA210A128A11831215
:100F2A0003133808AD002D08F30002300A128A11A3
:100F3A0086210A128A115530F3008030F4000A1211
:100F4A008A11EA210A128A11063083120313AF00AA
:100F5A001330AE00AD30AD00AD0BB12FAE0BB12FDB
:100F6A00AF0BB12F013083120313B8070318B90A64
:100F7A000030B9073908803AFF0080307F02031D2C
:100F8A00C82F22303802031CCB2FCC2F752F1A30D2
:100F9A0083120313AE00F730AD00AD0BD22FAE0BA8
:100FAA00D22FD72FD62C0A128A1100280A128A1198
:100FBA0065210A128A11D2000A128A1166210A12BE
:100FCA008A11D3000A128A1167210A128A11D400DF
:100FDA000A128A1168210A128A11D50083133A303B
:100FEA00840052300A128A116E210A128A11830170
:060FFA000A128A11A12C6D
:08400000FF3FFF3FFF3FFF3FC0
:02400E003A3B3B
:00000001FF
